:020000040800F2
:1000000000000220D513000825140008251400085C
:10001000251400082514000825140008000000001D
:10002000000000000000000000000000251400088F
:10003000251400080000000025140008F907000836
:1000400025140008251400082514000825140008AC
:100050002514000825140008FD07000825140008D1
:10006000251400082514000825140008251400088C
:10007000251400082514000825140008251400087C
:100080001D080008251400082514000800000000C1
:10009000000000000000000000000000251400081F
:1000A000251400082514000825140008251400084C
:1000B000251400082514000825140008251400083C
:1000C0002514000829080008350800082514000830
:1000D00025140008251400084D0700080000000042
:1000E000251400082514000825140008000000004D
:1000F00000000000000000000000000025140008BF
:10010000000000002514000825140008251400082C
:1001100000000000000000000000000000000000DF
:1001200025140008251400082514000825140008CB
:10013000251400080000000000000000000000007E
:10014000000000000000000000000000251400086E
:10015000251400082514000825140008251400089B
:10016000251400082514000800000000000000000D
:10017000000000000000000000000000000000007F
:10018000000000002514000800000000000000002E
:080190002514000825140008E5
:10019800C1F307230170090C8170090A4370C1700B
:1001A800704730B50246014441F221054FF6FF7011
:1001B8008A4200D130BD12F8013B082480EA0320AE
:1001C80003B2002BB4BF85EA43034300013C98B255
:1001D800F6D1EDE7034B044A1B68106803F6FF737A
:1001E800181A7047344E0020384E002010B5EFF32F
:1001F800108172B60C4A0D4C002313700C4A137010
:1002080023700C4C23600C4C23600C4C23600C4C6A
:1002180023600C4B1860003818BF01201070BFF322
:100228005F8F81F3108810BD0706002006060020A6
:100238000806002020060020240600201C060020B6
:1002480014060020100600202DE9F84F2F4ADFF889
:10025800E0A0DFF8E0B0DAF80040DBF80030127810
:100268002B4F8AB13A787AB92A4A127862B91B1B9D
:10027800B3F5806F06D23BB1274B1A68274B1B6832
:100288009A4201D101233B70254D264B264ADFF8BF
:10029800A89005EB40054FF00008397899B3DBF8D2
:1002A8000010A1422AD0C4F30C01013432F91160C4
:1002B800D9F800100131C9F800101849D9F8000020
:1002C800096888420AD10021397012490120087052
:1002D80001F0F2F81549134B134A086008F10108B8
:1002E800B6B2B8F5807F2E806E8005F10405D4D1B2
:1002F800BFF35F8FCAF80040BDE8F88F002139705E
:100308001968013119600026E8E700BF08060020D7
:10031800070600200606002014060020100600200C
:100328002806002018060020280E00200C060020B1
:1003380020060020240600201C06002010B50024FA
:1003480086B0A3420CBF022312230191029301A994
:100358000323CDE90432039401F0F0FA06B010BD8E
:100368002DE9F041ADF5826D1D4680460F461146D8
:10037800FFF730FF05F10906B04241D345F6A52342
:10038800ADF804308DF8077000233F0A01AC84F8FB
:10039800028027716571A37125B12A460DF10B0002
:1003A80003F0F4FE691D0DF10600FFF7FAFEEF1DDC
:1003B80004EB0708E055000A88F801001148124FBD
:1003C800036800229918C1F30B01013214F801CB1C
:1003D80007F801C09642F5D8BFF35F8F09332B4465
:1003E8000360EFF3108172B6084AD36843F08003C4
:1003F800D36081F3108801200DF5826DBDE8F0818E
:100408000020F9E7384E0020444E00200044004008
:10041800294BF7B5294A1B691178294D03F00106C4
:10042800B1421CBF1670274A044618BF10602878CE
:10043800254AB042116809D022480068201A1828B5
:1004480004D9224B2E70F6B901211970204B1D6872
:100458001368AB4215D01F4E3368E31A632B10D9CB
:10046800FFF7B8FE3F280CD9013501A82946FFF748
:100478008FFE02460423A9B28120FFF771FF00B165
:10048800346003B0F0BD18780028DFD0124D13484F
:100498002F680668B742D9D02D6805600020013161
:1004A80018700F4B11604FF4804199610949A4F10C
:1004B80064030B60CAE700BF00000240400400204C
:1004C800380400203C040020FC0500200000002027
:1004D800F8050020F4050020000600203404002060
:1004E800000C02407FB501238DF817101421CDE9C7
:1004F80001310DF11701024600910548942101F0E0
:1005080055FEB0FA80F0400907B05DF804FB00BF63
:10051800406F0020164A174B10B501281870D0708C
:100528004FF0080014BF01240524D07112489470BC
:100538004FF05503114C0160137011484FF0000340
:1005480001F11401537013715371937123700D4BA2
:1005580001604FF0010119700B4814BF04230823F0
:10056800662101F073FD08B10223237010BD00BF9E
:100578005205002008000020440400204104002007
:10058800480400205E050020EC6E002038B5094CB8
:1005980000252570084D2A70084A143313600B464D
:1005A80002466621064801F0A7FD08B10223237020
:1005B80038BD00BF410400205E050020480400202B
:1005C800EC6E0020204A1368013370B513601F4B8E
:1005D8001F4C0025064621201D7000F0D9FF22205F
:1005E80000F0D6FF204601F018FD1A4B1A6A42F4B3
:1005F80080021A621A6A22F480021A62A3F5F033A2
:100608002360154BE560C4E9013520464FF480436B
:10061800C4E90435C4E9075501F056FC212000F06F
:10062800DDFF222000F0DAFF212000F0A3FF2220C6
:1006380000F0A0FF094B1D70094B08221A70094BE6
:1006480006F57A761E6070BDEC0500205F05002077
:10065800EC6E002000380240A08601004104002012
:100668005E0500200400002030B52A4B1B78532B70
:10067800A3B0044605D1284B1A78284B1B7893421F
:1006880005D0204623B0BDE83040FFF79BBF012BC3
:1006980009D1234B072200F59C541A700834214BCA
:1006A8001C6023B030BD204B1B88802BE9D11F4B29
:1006B8001F4A1D680135294601A81D60FFF768FD1E
:1006C8001C49002332F8020B21F813000133402B98
:1006D800F8D18022164902A803F058FDFFF77AFDE9
:1006E800B0F5867F0DD8144A136801331360134B95
:1006F8001C60134B01221A70094B07221A704334ED
:10070800CDE7842301AAA9B28220FFF729FE002899
:10071800E9D0ECE75D050020080000205C0500201A
:100728005E0500200400002050040020F005002091
:100738005204002060050020E4050020E0050020A8
:100748005F050020204A136813F02F0F10B51FD043
:1007580054681A0707D01D490A6801320A601C4A02
:100768000121117014E0980612D51A4A1A48116826
:100778000068091A40F6FE7081421ED811681748B1
:10078800C1F30B014454BFF35F8F1168013111604D
:10079800190611D50C4BDA6812060DD51049114A05
:1007A8000868126890420AD00A68501C0860C2F3B0
:1007B8000B020D498A5C5A6010BD0C49CCE7DA6817
:1007C80022F08002DA60F7E700440040304E002053
:1007D800284E0020404E00203C4E0020445E002061
:1007E800344E0020384E0020444E00202C4E00206D
:1007F80000F056BE054B5A69D20705D501225A6149
:10080800034A136801331360704700BF003C01407E
:1008180000060020014800F0CFBF00BF446E002052
:10082800014801F0CBBF00BFEC6E0020014802F088
:1008380015BC00BFEC6E0020034B834202D10020A0
:10084800FFF702BD704700BFA46E0020034B834230
:1008580003D14FF40070FFF7F7BC7047A46E002077
:10086800034B834202BF034B01221A70704700BF3B
:10087800A46E002004060020034B834202BF034BF2
:1008880001221A70704700BFEC6E0020410400205E
:10089800FFF7F2BF034B834202BF034B02221A70D9
:1008A800704700BFEC6E0020410400202DE9F04F96
:1008B800ABB07F4CDFF81092DFF810A2002500F0F3
:1008C800D5FD0D95236B43F001032363236B03F0E0
:1008D80001030D930D9B0E95236B43F002032363D5
:1008E800236B03F002030E930E9B0F95236B43F0CB
:1008F80004032363236B03F004030F930F9B1095EA
:10090800236B43F008032363236B03F0080310935E
:10091800109B1195636C43F480436364636C03F428
:1009280080431EAF11930126119B39464FF21003E5
:100938004846CDE920552295CDE91E3600F0FEFF48
:100948001E9B5C481B04C9F818304FF00208394652
:10095800CDE91E65CDF8808000F0F0FF564A936817
:1009680023F00F039360DAF8003023F00103CAF88C
:100978000030DAF80C3023F00103CAF80C30DAF84A
:1009880008303343CAF808302A460321CAF81460ED
:10099800062000F0BDFD062000F020FE062000F035
:1009A800E9FDDAF8003043483343CAF8003007223B
:1009B8002B460C21FFF7C2FC4048334604224FF473
:1009C8001071FFF7BBFC3D48334604224FF48061A9
:1009D800FFF7B4FC3948334609220821FFF7AEFC7B
:1009E8002B46344806221021FFF7A8FC2B46344832
:1009F80006224FF4A451FFF7A1FC0B95236C43F09A
:100A080080532364236C03F080530B930B9B2D4B73
:100A18000C951A6842F440421A601B684FF0100A9D
:100A280003F440430C932946524620A80C9B03F03C
:100A380081FB4FF480331F9308254FF48003CDE9E1
:100A480025354FF0040BC0233846CDE927381E96CC
:100A5800CDF89080CDF8A4B002F068FEC0B90F239D
:100A6800CDE91338159017904FF48053032113A83C
:100A7800169303F037F858B9CDE91C00D52318A808
:100A8800CDE91865CDE91A3803F0D6F80546F8B16E
:100A98000D4E002500F010FD0446FFF7B9FC631B5E
:100AA800C72BF7D9736983F4005373612546F1E7BF
:100AB80000380240000002400038014000040240B3
:100AC8000008024000700040000C0240003C014059
:100AD8001890236C43F400332364236C03F400332D
:100AE8001893189B454BD86018615E6103F094F821
:100AF800424B434A00F5F42000F59070B0FBF2F049
:100B080042F22C0298603146DA6026202A4600F02C
:100B1800FFFC262000F02EFD29462B462A4685207C
:100B2800FFF71EFC0995236C364A43F4001323642F
:100B3800236C03F400130993099B0A95236C43F46F
:100B480080032364236C304C03F480030A930A9BCC
:100B58002E4B2046C4E900324FF48043C4E90435E3
:100B6800C4E90255C4E9075501F0AEF928482949F6
:100B7800244A4FF48043C0E90435C0E90012C0E9B3
:100B88000255C0E9075501F09FF92A465946212028
:100B980000F0BEFC2A465946222000F0B9FC21206C
:100BA80000F0E8FC222000F0E5FC4FF480138DF8FB
:100BB80023508DF878504046C9F8183000F082FC70
:100BC800C9F818A0404600F07DFC4FF0140A0DF15A
:100BD80023030093CDE9016A334632469421204627
:100BE80001F074FBDFF834900546C8B1002389F89A
:100BF8000030094B4FF400529A61EAE0004400408B
:100C080040420F00A0860100406F002000540040C1
:100C1800EC6E002000580040000C02400506002041
:100C28009DF8233003F0F803E02BDFD1314640462E
:100C3800FFF758FC0028D9D099212846FFF752FC25
:100C48000028D3D080214720FFF74CFC0028CDD0C6
:100C5800CDE9016A0097334632229421204601F0FB
:100C680035FB0028C2D19DF87810322041F0800170
:100C7800FFF738FC0028B9D09DF87810322001F031
:100C88007F01FFF72FFC0028B0D000210846FFF7AE
:100C980029FC0028AAD0AF210420FFF723FC002854
:100CA800A4D081210520FFF71DFC00289ED0072134
:100CB8000620FFF717FC002898D000210A20FFF72C
:100CC80011FC002892D000210D20FFF70BFC002812
:100CD8008CD0D8212020FFF705FC002886D0D82109
:100CE8002120FFF7FFFB002880D000212220FFF7FA
:100CF800F9FB00283FF47AAF00212320FFF7F2FB2D
:100D080000283FF473AF9F4A9F4C00231293116C45
:100D180041F400411164116C01F4004112911299DF
:100D28001393116B41F400111163126B974902F48C
:100D380000121392139A4FF40072C4E90012226150
:100D480020464FF47A52C4E90233C4E90523C4E9C2
:100D5800073302F021FA00287FF448AF8C4D8D4B01
:100D6800C5E900304023C5E902304FF480664FF4EE
:100D780000634FF40052C5E904634FF48073C5E97A
:100D880006234FF40033C5E90830284600F04AFC32
:100D9800024600287FF42AAF02211020A563AC6325
:100DA80000F0B6FB102000F0E5FB7B4932462046F8
:100DB80002F092FA00287FF419AF022000F082FBBB
:100DC8009E210220FFF78EFB89F8000000283FF4DF
:100DD80010AF724E00F070FB0446FFF719FB704A23
:100DE800137803F0FF013BB3EFF3108172B66D4B3C
:100DF80018686D4B18600023137081F310883380D6
:100E080040F2FF73DFF8A0A10493664BDAF80020E4
:100E18001B689A4240F0368164490B78082B00F22F
:100E28000F82DFE813F058010D02F6010D020D02E2
:100E38000D020D02ED0158013388002BE0D05C4B08
:100E48001B68E31A642BDBD93180D9E798F80030A6
:100E5800A52B07D1B9F1010F00F0398198F80130BD
:100E68005A2B08D0534909F1FF3292B23280481EFA
:100E780003F046F925E1B9F1060F40F22881B8F8E8
:100E88000550B5F5806FEDD805F10903994505932F
:100E9800C0F01D814848691DFFF783F9034647489C
:100EA800425B9A4240F0E38098F80290B8F803B0A9
:100EB8000023B9F1200F8DF878301AD1042D0CD108
:100EC8003F49D8F807300A689A1A002A05DD3D4AD2
:100ED8001268D21A002A00DB0B60328805993A485A
:100EE800093A551BADB22A46414403F009F9358049
:100EF800E7E02946FFF755F9344B06901B7893B184
:100F0800334B1B885B450ED1324B1B784B450AD1BE
:100F1800314B1B88834206D101233A46594680202B
:100F2800FFF71EFAD9E7B9F1120F14D19DB9284677
:100F3800FFF75CF99DF87830002BEDD1234B0122A7
:100F48001A70234B069AA3F800B0224B83F800903E
:100F5800214B1A80E0E7214B1B781BB903238DF83E
:100F68007830D9E7B9F1100F3CD1042D4ED1D8F81B
:100F7800070000284AD01A4B1B78002BD8D0012331
:100F8800EDE700BF00380240A46E0020003C00409E
:100F9800446E0020886002402806002030040020AB
:100FA800284E0020404E00203C4E00205E050020C8
:100FB8002C04002024000020250000202A00002006
:100FC800F8050020FC050020230000202200002056
:100FD800200000201E0000201C0000200506002024
:100FE80008060020B9F1110F10D17DB115F00102EA
:100FF8000CD1AB4B1B784BB1AA49AB4809680068C8
:10100800091AB1EB550F4FEA550301D20223A6E79F
:10101800A649A7480968D0F800C001F50051A1EB1E
:101028000C018B42ABD80168DFF8F0C207919342FC
:1010380012D8EFF3108172B6DFF86CC2DCF800202A
:101048001A44CCF80020BFF35F8F079A1344984ADC
:10105800136081F310886DE7079996483CF802EB16
:101068001144C1F30C01013220F811E0DFE7924A84
:1010780013680133136009F1FF3292B2811F328085
:101088000738F5E6049B01333FF4C6AEFFF7A2F834
:101098003F287FF6C1AEDAF80030884AC3F30B0365
:1010A800D25CBFF35F8FDAF80030DFF87482013367
:1010B800CAF80030824B1C603388591C08F803209A
:1010C8003180B6F80090B9F1000F7FF4BFAE049BF1
:1010D800013B049399E67B4B1B68E31A002B03DB67
:1010E80021460120FFF716FADFF8388298F8003019
:1010F8003BB10025744B28461D70FFF777F888F838
:101108000050724D2B78A3B1714B1B68E31A222B48
:101118000FD4704B38461968FFF73AF83A4604235B
:1011280000218420FFF71CF918B15D4A00231370D1
:101138002B7069490B68E31AB3F57A7FFFF44AAE5E
:10114800FFF748F8FF287FF645AE644A0C605369FC
:1011580083F48053536101238DF878305A4B1B7800
:101168008DF879305E4B1B783BB15E4B1B68E31AF8
:10117800B3F5FA6F2CBF002301238DF87A30484B62
:1011880021461B788DF87B301FA8FFF701F8564BD6
:1011980020A81968FEF7FCFF544B21A81968FEF730
:1011A800F7FF534B22A81968FEF7F2FF514B23A80B
:1011B8001968FEF7EDFF504B24A81968FEF7E8FF01
:1011C8003D4B25A81968FEF7E3FF4C4B26A8196884
:1011D800FEF7DEFF4A4B27A81968FEF7D9FF494BEF
:1011E80028A81968FEF7D4FF3A4B29A81968FEF712
:1011F800CFFF3A46302300218320FFF7B1F8E9E515
:10120800304B1B68E31A002BFFF66EAF2146022015
:1012180068E73D4B1B68E31AB3F5FA5F03D3204632
:10122800FFF7D0F960E7274B1B68E31A002BFFF69E
:101238005BAF3648234603220121FFF7A7F953E79E
:10124800334A10780228EAD0107820B9314800686B
:10125800201A0028E3DA107800283FF445AF002070
:10126800013B1070052BDAD801A252F823F000BF19
:101278003113000827120008911200083F130008D4
:10128800491300087B130008204B1B78532B01D00F
:10129800632B49D12048234604220121CDE700BF12
:1012A8000806002010060020140600202006002052
:1012B80024060020280E0020E8050020445E0020B7
:1012C8002C0400200400002005060020060600204B
:1012D8000C0600201C06002018000020000C02400C
:1012E8005F050020E0050020F0050020EC05002047
:1012F80018060020304E00202C4E0020FC0500204F
:1013080000060020E4050020440400205D050020BC
:1013180041040020480400205C0500202A00002029
:10132800230000200406002002231D4A0B7004F14C
:1013380011031360D8E61B482346052202217CE7E7
:10134800184B1988184B1980184B0022B1F5807F6B
:101358001A803FF664AF19B92046FFF785F9C3E64E
:10136800134B1448202928BF202119800622234620
:1013780063E70E4A0E4B10881988084480B2108023
:10138800094A11888842E7D0091A2029094DA8BFBF
:10139800202189B219800622234628444DE700BF40
:1013A800040000205A050020500400204E040020AC
:1013B8004C04002052040020034AD2F8883043F439
:1013C8007003C2F88830704700ED00E0DFF834D0D1
:1013D800FFF7F2FF0C480D490D4A002302E0D458EC
:1013E800C4500433C4188C42F9D30A4A0A4C002367
:1013F80001E013600432A242FBD302F0A3FEFFF720
:1014080055FA704700000220000000201800002054
:10141800D841000818000020986F0020FEE77047A8
:101428007047704738B50E4B1A784FF47A73B3FB90
:10143800F2F30C4A05461068B0FBF3F000F0BAF876
:10144800044658B90F2D09D8024629464FF0FF30F7
:1014580000F05EF8044B20461D6038BD0120FCE713
:10146800100000200C0000201400002008B50B4BD1
:101478001A6842F400721A601A6842F480621A60AC
:101488001A6842F480721A60032000F02FF80F20C7
:10149800FFF7C8FFFFF7C5FF002008BD003C02406A
:1014A800034A044B11681B780B441360704700BF54
:1014B800946F002010000020014B1868704700BF8F
:1014C800946F002038B50446FFF7F6FF631C1CBF75
:1014D800054B1B78054618BFE418FFF7EDFF431BC3
:1014E800A342FAD338BD00BF100000200749CA68DC
:1014F80022F4E0620302120403F4E063120C1343C3
:1015080043F0BF6343F40033CB60704700ED00E065
:10151800164B30B5DC68C4F30224C4F10703251D5B
:10152800042B28BF0423062D4FF0FF358CBF033C46
:10153800002405FA03F321EA0303A54022EA050281
:10154800A340002843EA0203ACBF00F16040084A08
:101558004FEA0313B8BF00F00F00DBB2AABF00F5D3
:101568006140135480F8003330BD00BF00ED00E047
:1015780014ED00E0002807DB044A4109012300F0CC
:101588001F00834042F82130704700BF00E100E0AF
:1015980000280CDB4309064900F01F002033012214
:1015A800824041F82320BFF34F8FBFF36F8F7047FE
:1015B80000E100E00138B0F1807F0BD24FF0E0236A
:1015C800054A5861F02182F823100020072298610B
:1015D8001A6170470120704700ED00E0002808DB21
:1015E8004309044900F01F0001226033824041F89A
:1015F8002320704700E100E0036810B5084C02465C
:10160800D9B210391820B1FBF0F0205CD06523F472
:101618007F7020F003005F2988BF0430906510BDFB
:10162800C841000870B50446FFF746FF0546002C80
:1016380060D0022384F835302268002384F83430DF
:10164800136823F00103136022681368D8072ED4A7
:1016580013683248A1691840D4E901352B43E5687D
:101668002B4325692B4365692B43E5690B432B43C2
:10167800256A2B430343606A042802BFD4E90B564A
:1016880035432B4313605369042823F0070343EAC7
:10169800000335D1A06AE56A03438DB391B90128E7
:1016A80020D030F002012BD1E90129D51DE0FFF748
:1016B80003FF401B0528C7D920230320636584F84E
:1016C800350070BDB1F5005F16D1032818D801A107
:1016D80051F820F0F3160008B1160008F3160008B8
:1016E800ED160008B5F1C07F0AD1402363650123D8
:1016F80084F835300120E4E70228F6D90328D3D04E
:1017080053612046FFF778FFE26D3F2393408360E3
:1017180000200123606584F83530D2E73F8010F05F
:1017280070B590F83440866D012C30D0012480F8D3
:10173800344090F83540012C4FF0000425D10225A3
:1017480080F8355044650468256825F480252560AF
:1017580063608368402B0EBFA260A160E260C26D27
:1017680008BFE1603F239340B360236843F016034A
:101778002360036C1BB1236843F0080323602368CC
:1017880043F001032360002070BD80F8344002203C
:10179800FAE790F83530022B03D080234365012007
:1017A80070470268052380F83530136823F0010379
:1017B8001360002070470000F7B5002301935C4BCD
:1017C800856D1F68C36D2E6808229A403242044610
:1017D8000CD001680868400708D5086820F00400A4
:1017E8000860AA60626D42F00102626501229A40B7
:1017F800324208D021684969090641BFAA60626D72
:1018080042F00202626504229A40324208D02168FE
:101818000968880741BFAA60626D42F004026265E8
:1018280010229A40324210D02368196809070CD553
:10183800AA601A68500337D51B68190301D4236CB2
:1018480000E0A36C0BB120469847E16D20228A4046
:1018580032423AD023681868C60636D5AA6094F88A
:101868003520052A1A6827D122F016021A605A690B
:1018780022F080025A61226C0AB9A26C1AB11A6865
:1018880022F008021A603F238B40AB60012384F8E2
:101898003530002384F83430236D002B45D02046A2
:1018A80003B0BDE8F04018471A68D2055EBF1A6851
:1018B80022F008021A60C2E7500327D51B681903F3
:1018C80031D4636C0BB120469847636D6BB3636D7D
:1018D800DA0719D522684FF41653B7FBF3F7052337
:1018E80084F83530136823F001031360019B01333A
:1018F800BB42019302D81368DB07F7D4012384F8AD
:101908003530002384F83430E36CC6E71A6812F4E3
:10191800807208D1196821F010011960012384F838
:10192800353084F83420E36BCCE703B0F0BD00BF5A
:101938000C00002090F83500704700002DE9F74FA3
:10194800DFF880915D4A00230D6801249C4004EA79
:101958000506AC4340F0A3804D68032705F0030457
:101968004FEA430807FA08FC671E012F6FEA0C0CC0
:1019780034D8876807EA0C0ECF6807FA08F747EAF1
:101988000E078760476827EA060EC5F300179F40D1
:1019980047EA0E074760C76807EA0C0E8F6807FA20
:1019A80008F747EA0E07022CC76019D14FEAD30A95
:1019B80000EB8A0A03F0070BDAF820704FEA8B0B6A
:1019C8004FF00F0E0EFA0BFE27EA0E0E0F6907FAFC
:1019D8000BF747EA0E07CAF8207001E0032CDAD1AA
:1019E800076804FA08F407EA0C073C4315F4403F7B
:1019F800046054D000240194D9F8444044F480444D
:101A0800C9F84440D9F8444023F0030707F1804758
:101A180004F4804407F59C37019403F0030C019CFF
:101A2800D7F808E04FEA8C0C0F2404FA0CF42EEADD
:101A3800040E234CA04239D004F58064A04237D06C
:101A480004F58064A04235D004F58064A04233D008
:101A580004F58064A04214BF0724042404FA0CF49B
:101A680044EA0E04BC609468F74315F4801F0CBF69
:101A78003C4034439460D46815F4001F0CBF3C40CC
:101A88003443D460546815F4003F0CBF3C403443E1
:101A980054601468ED0354BF3C4034431460013370
:101AA800102B7FF451AF03B0BDE8F08F0024D5E7C9
:101AB8000124D3E70224D1E70324CFE7003C014007
:101AC800000002400038024001684B6913F480634B
:101AD8004FF0000210D06FF480634B612023026343
:101AE80080F83D3080F83E20036C80F83C2043F0BD
:101AF8000403036401207047184670472DE9F8462F
:101B080006460F4691461D464FEA114A3368BAF118
:101B1800010F0CBF5C699C6927EA0404A4B2B4FAFB
:101B280084F46409A14501D0002025E06A1CEED0A8
:101B3800FFF7C2FC089BC01AA84201D8002DE5D1C6
:101B48003368BAF1010F0CBF5B699B6927EA03038D
:101B58009BB2B3FA83F35B099945D7D100232022BE
:101B6800336386F83D2086F83E30326C86F83C3088
:101B780042F0200232640120BDE8F8862DE9F041E8
:101B880004460F46164698462568686927EA000005
:101B980080B2C0B16B695A0517D52B6843F400733E
:101BA8002B606FF480636B6120220023236384F829
:101BB8003D2084F83E30236C43F004032364002363
:101BC80084F83C300120BDE8F081731CDDD0FFF7BC
:101BD80073FCA0EB0800B04201D8002ED4D12368D2
:101BE8005A6927EA020292B2002ACDD000232022A5
:101BF800236384F83D2084F83E30236C1343DDE7EB
:101C080070B504460D46164623685B691B0601D568
:101C180000201EE02046FFF757FFC8B96A1CF3D022
:101C2800FFF74AFC801BA84201D8002DECD123689D
:101C38005B6913F08003E7D12022236384F83D20F9
:101C480084F83E30226C84F83C3042F02002226452
:101C5800012070BD2DE9F0431546026885B0DDE925
:101C68000C789946136843F4807313600E463B461C
:101C7800CDF8008000224FF001110446FFF73EFF27
:101C8800236838B11B68DB0502D54FF40073236461
:101C9800032620E006F0FE061E611A4943463A462E
:101CA8002046FFF76BFFA8B9236803905A6903928F
:101CB8009B690393424639462046039BFFF7A0FFE2
:101CC800064660B1236C042B01BF2268136843F4F5
:101CD800007313600126304605B0BDE8F083B9F102
:101CE800010F236802D1EDB21D61F4E72A0A1A61D7
:101CF800394642462046FFF783FF0028E2D1236891
:101D0800F1E700BF020001002DE9FF479A4603688A
:101D180015461A6842F480621A601A68DDE90C7880
:101D280042F480721A600E463B46CDF800800022CD
:101D38004FF001110446FFF7E1FE236838B11B6834
:101D4800DB0544BF4FF400732364032021E05FFAEE
:101D580086F906F0FE061E612B4943463A462046A0
:101D6800FFF70CFFA0B9236803905A6903929B6997
:101D78000393424639462046039BFFF741FF58B17B
:101D8800236C042B01BF2268136843F400731360AB
:101D9800012004B0BDE8F087BAF1010F23681AD119
:101DA800EDB242461D6139462046FFF729FF02463B
:101DB8000028E5D121680B6843F480730B60204646
:101DC800CDF800803B464FF00111FFF797FE2268DF
:101DD80060B11368B4E72A0A1A61394642462046B8
:101DE800FFF70EFF0028CBD12368D9E749F001039C
:101DF8001361054943463A462046FFF7BFFE0038BF
:101E080018BF0120C5E700BF0200010070B50446F5
:101E18000D46164623685B695B0701D500201EE066
:101E28002046FFF751FEC8B96A1CF3D0FFF744FB00
:101E3800801BA84201D8002DECD123685B6913F000
:101E48000403E7D12022236384F83D2084F83E3040
:101E5800226C84F83C3042F020022264012070BDDC
:101E680070B504460D46164621684B6913F04003C9
:101E780001D0002011E04A69D2060FD56FF0100298
:101E88004A612022236384F83D2084F83E30236C85
:101E98002364002384F83C30012070BDFFF70CFB5D
:101EA800801BA84201D8002DDED123685B6913F09E
:101EB8004003D9D12022236384F83D2084F83E30A2
:101EC800236C1343E4E7704770B5044608B9012052
:101ED80070BD90F83D3003F0FF021BB980F83C203C
:101EE800FFF7F1FF242384F83D3023681A6822F0B5
:101EF80001021A601A6842F400421A601A6822F451
:101F080000421A6001F088FE3F4B65689D4294BF0D
:101F18003E4B3F4B98428CBF00230123002BD6D168
:101F28002268394E51683B4BB0FBF3F321F03F0177
:101F38001943B542516088BF4FF49676116A88BF3D
:101F4800734321F03F0184BF4FF47A76B3FBF6F375
:101F580001330B431362D169431E2B4821F44F41CF
:101F6800854221F0FF0132D86D0040F6FC70B3FBCA
:101F7800F5F30133034242D0C3F30B031943D16194
:101F8800D4E907301168034321F0C0010B43136003
:101F98009168D4E9030321F40341034321F0FF01CD
:101FA8000B439360D4E90530D168034321F0FF0166
:101FB8000B43D360136843F0010313600020202310
:101FC800206484F83D30206384F83E0080E7A068F0
:101FD80050B905EB4505B3FBF5F30133C3F30B0328
:101FE8007BB143F40043C9E719206843B3FBF0F31E
:101FF8000133C3F30B0323B143F44043BEE7042387
:10200800BCE70123BAE700BFA08601007F841E0059
:10201800FF083D0040420F00704710B5044698B1D4
:102028000268242380F83D30136823F0010313600D
:10203800FFF7F2FF0020206484F83C0084F83D009C
:10204800206384F83E0010BD0120FCE737B5044644
:102058000020019094F83D00202802D0022003B00F
:1020680030BD234846F2A8150068B0FBF5F01925E5
:1020780068430190019801380190019850B92023D4
:10208800206384F83D3084F83E00236C43F020033D
:102098002364E3E72568A8698007EBD494F83C003B
:1020A8000128DBD02868C0075EBF286840F001001F
:1020B8002860286820F400602860212084F83D000A
:1020C800102084F83E00002020646385638D2385FA
:1020D800084BE36284F83C0061646B68626243F415
:1020E800E0636B602B6843F480732B60B7E700BF35
:1020F8000C0000200000FFFF37B5044600200190C7
:1021080094F83D00202802D0022003B030BD2548B5
:1021180046F2A8150068B0FBF5F019256843019050
:10212800019801380190019850B92023206384F860
:102138003D3084F83E00236C43F020032364E3E73A
:102148002568A8698007EBD494F83C000128DBD007
:102158002868C0075EBF286840F00100286028682A
:1021680020F400602860222084F83D00102084F8C4
:102178003E00002020646385638D23850A4BE3625B
:1021880084F83C0061646B68626243F4E0636B60EE
:102198002B6843F480632B602B6843F480732B60B7
:1021A800B3E700BF0C0000200000FFFF2DE9F74354
:1021B800044699460C9E0F469046FFF77DF994F821
:1021C8003D30202B054603D0022003B0BDE8F08344
:1021D80000903C49192301222046FFF78FFC002874
:1021E800F2D194F83C30012BEED02068012384F81A
:1021F8003C300368D9075EBF036843F001030360FE
:10220800036823F400630360212384F83D304023EE
:1022180084F83E30002323640A9B6362BDF82C30A7
:102228006385638D2385284BE3624246CDE90065CB
:102238004B4639462046FFF70DFD00282AD00120DD
:10224800C3E7FFF7DDFC40B1236C042B01BF226814
:10225800136843F400731360F1E7636A27681A464A
:1022680012F8011B39616262628D218D013A92B2C6
:1022780062857A69481E80B2520720850AD548B11E
:102288005A783A6102336362638D013B02399BB22B
:1022980021856385238D2A4631462046002BD0D1DF
:1022A800FFF7B4FD0028CFD12268136843F4007308
:1022B8001360202384F83D3084F83C0084F83E0005
:1022C80083E700BF020010000000FFFF2DE9F04384
:1022D800044687B09946109F0D469046FFF7ECF8E4
:1022E80094F83D30202B064604D00225284607B036
:1022F800BDE8F08300907A49192301222046FFF7B0
:10230800FDFB0028F1D194F83C30012BEDD020687A
:10231800012384F83C300368DB075EBF036843F0A1
:1023280001030360036823F400630360222384F835
:102338003D30402384F83E30002323640E9B6362C3
:10234800BDF83C306385638D2385664BE36229467F
:10235800CDE900764B4642462046FFF7D5FC0546B8
:1023680008B10125C2E7228D2368B2B902905A69E3
:1023780002929A690292029A1A6842F400721A60EA
:10238800DFF86481238D002B2CD1202284F83D2096
:1023980084F83C3084F83E30A8E7012A0AD11A684C
:1023A80022F480621A6003905A6903929A69039230
:1023B800039AE1E7022A0ED11A6822F480621A60B1
:1023C8001A6842F400621A6004905A6904929B6980
:1023D8000493049BD4E705905A6905929B69059379
:1023E800059BCDE7032B56D8012B15D1324639462C
:1023F8002046FFF735FD0028B3D123681A69636AC0
:102408001A70636A01336362238D013B2385638DF0
:10241800013B9BB26385B5E7022B00963B464FF024
:1024280000024146204619D1FFF768FB002898D1E1
:1024380023681A6842F400721A601A69636A1A708B
:10244800626A531C6362238D013B2385638D013BC4
:102458009BB2638523681B695370D2E7FFF74EFB75
:10246800024600287FF47DAF2368196821F4806153
:1024780019601969636A1970636A01336362238D8D
:10248800013B2385638D013B9BB2638541460096E2
:102498003B462046C8E7324639462046FFF7E0FC6F
:1024A80000287FF45EAF23681A69636A1A70628D28
:1024B800616A013A92B24B1C628522686362238D7D
:1024C8005069013B9BB2400723857FF55BAF032B27
:1024D80002BF136823F48063136013694B7090E79D
:1024E800020010000000FFFF040001007047704761
:1024F80070477047704790F83D2008B5036DD2B219
:1025080083B9C36C0268012B836C05D1DBB21361FC
:10251800036D0233036508BDC3F307231361036D1D
:102528000133F7E7036D012B03D1836C0268DBB23B
:10253800F4E7036D022B2FD1222A05D10268136814
:1025480043F480731360EAE7438D9BB263B1212A99
:102558000AD1436A026813F8011B11614362438D73
:10256800013B9BB24385D6E7438D9BB2002BD2D16A
:10257800212AD0D10268516821F4E06151601168C4
:1025880041F4007111602022036380F83D2080F837
:102598003E30FFF7AFFFBEE703685A69120644BF33
:1025A80000221A61B7E770477047000037B500236B
:1025B80001932D4B806B1B6890F83D2046F2A811C3
:1025C800B3FBF1F323214B4301930368D2B2019982
:1025D80041BB016C41F020010164446B0CB1002146
:1025E800E163816B09B10025CD631D6825F4806521
:1025F8001D600025458504B1256501B10D65196883
:1026080021F00101196090F83D10602911D12023B3
:1026180080F83D30002380F83E300364FFF7C4FFA4
:1026280003B030BD01990139019119688905CED4EB
:10263800D3E702F02802282A0ED1196841F00101D7
:102648001960196841F4806119600023036380F8F8
:102658003D20FEF71FF9E3E7202380F83D300023F3
:1026680080F83E30F5E700BF0C00002010B590F868
:102678003D2090F83E30102BD9B204460368D2B200
:1026880001D0402913D1222A11D1196821F40061FF
:102698001960596811F4006106D1602A1EBF202212
:1026A80084F83D2084F83E100022226307E002F0FF
:1026B80028012829EDD10022226384F83D105A68A8
:1026C80012F400624FD05A68606B22F400625A60BC
:1026D80090F83530012B374B2BD00365FFF759F8AD
:1026E80050B12268606B136823F001031360202344
:1026F80084F83D30036D9847236C19071FBF226883
:10270800536823F4E063536094F83D30226C520719
:10271800DBB20DD5282B0BD1274BE36220220023F7
:102728002363204684F83D2084F83E30FFF7E1FE1D
:1027380010BDA06B0365FFF72CF80028DCD02368D8
:102748005A69510605D51A69636A1A70636A0133B2
:1027580063622268A06B136823F0010313602023CF
:1027680084F83D30C6E794F83D10602915D1202142
:1027780084F83D1022645A69520605D51A69636ABD
:102788001A70636A013363622268136823F00103D5
:1027980013602046FFF708FFAEE75A69500605D5D3
:1027A8001A69636A1A70636A013363622046FEF726
:1027B80071F8A1E7B52500080000FFFFF0B5036830
:1027C80004465A68C66A90F83E0094F83D101028EE
:1027D8008FB0C5B2C9B202D0402D40F0DD829F69EA
:1027E800586910F0010F07D1B6F52A0F02D0B6F1DB
:1027F8002A4F51D10FB0F0BD96054DD5E26AB2F51A
:102808002A0F0CD10122E26294F83E20402A11D10D
:10281800226D52B9626C02F0FE021A61EAE7E26ABE
:10282800B2F12A4FF0D10822EDE7626C42F00102C2
:10283800D2B2F2E72269B2F5804F1AD194F83D205E
:10284800212A626C11D102F0FE021A61626B0AB190
:10285800D26B2AB9A26B002ACCD0D26B002AC9D07D
:102868005A6842F400625A60C4E742F00102D2B2E8
:10287800EBE7226D32B9626CD21102F0060242F027
:10288800F002CAE7226D012AB4D1626CD21102F0BB
:10289800060242F0F102C0E7060703D5960501D506
:1028A800626CE4E7860740F1E880960540F1E58030
:1028B80094F83E10E26A256B94F83D002228C9B2CC
:1028C80040F0D380206D40B9402906D101905A6963
:1028D80001929B690193019B8CE7216D89B920695D
:1028E800B0F5404F0DD102915A6902929A6902924D
:1028F800029A1A6842F480721A60236D01332365C4
:1029080078E7618D89B251B903915A6903929A693E
:102918000392039A1A6842F400721A6019E0618DF2
:1029280089B2012949D112F5803F1BD11A6822F4D6
:1029380080621A605A6812F400620CD01A6822F495
:1029480080621A60002204925A6904929B69049377
:10295800049B0023D3E705925A6905929A69059268
:10296800059AD7E7082A1CD0202A1AD0122D0DD193
:10297800012A16D11A6822F480621A60002206928F
:102988005A6906929B690693069BE2E7102AF1D8DA
:10299800824941FA02F2D707ECD41A6842F48062FD
:1029A800EBE71A6822F480621A60002207925A69DB
:1029B80007929A690792079AACE7618D89B2022952
:1029C80030D1102A03D87649D140CE0715D41968DA
:1029D80021F480611960196841F40061196059682F
:1029E8000D0514D5202A1AD8072A0AD8012A0ED18B
:1029F8005A6842F480525A6009E0196841F48061CB
:102A0800ECE7A2F10801674ACA40D007F0D40022D7
:102A180008925A6908929B690893089B99E712F5EE
:102A2800803FE4E7196841F4806119605968090535
:102A380010D5202A16D8072A06D8012A0AD15A689A
:102A480042F480525A6005E0A2F10801554ACA4092
:102A5800D207F4D4002209925A6909929B69099312
:102A6800099B76E712F5803FE8E700220A925A6947
:102A78000A929B690A930A9BBCE67F0740F19480FF
:102A88005E6836053FF5B6AE070600F004063ED58B
:102A980050053CD5002E3DD194F83D20258D94F865
:102AA8003E10E06AD2B2C9B2C5B9212A18D10828A5
:102AB80058D0202856D010F5803F53D05A6822F4B9
:102AC800E0625A6011232363002384F83E302023F8
:102AD80084F83D302046FDF7CFFE8BE6212A05D04D
:102AE80040297FF487AE222A7FF484AE628D92B2A9
:102AF8001AB95A6822F48062B5E694F83E20402A52
:102B080016D120460FB0BDE8F040FFF7F4BC002E08
:102B18003FF470AE97057FF56DAE212939D1E16A92
:102B280094F83D20212A7FF465AE628D92B24AB1B5
:102B3800626A12F8011B19616262638D013B9BB2E4
:102B4800638557E608290DD020290BD011F5803F61
:102B580008D0596821F4E06159601123236384F88F
:102B68003E20B4E75A6822F4E0625A601A6842F4D8
:102B780000721A6000232022236384F83D2094F811
:102B88003E2084F83E30402A2046A4D1FFF7B2FC0C
:102B980030E6402D7FF42EAEB3E700BFEBFFFEFF1B
:102BA800140001000101000159680E053FF522AE2D
:102BB800450600F0040140F18680500540F183800D
:102BC800002940F0838094F83D20222A7FF412AE39
:102BD800E06A628D92B2032A14D91A69636A1A707C
:102BE800636A01336362638D013B9BB26385638DC6
:102BF8009BB2032B7FF4FEAD2268536823F48063F5
:102C08005360F7E5E56A022D3FF473AF012A3FF6FA
:102C180070AF7A4A0B91126846F2A811B2FBF1F232
:102C280002EB82020B920B9A013A0B920B99D1B9E3
:102C3800226C42F0200222645A6822F4E0625A6050
:102C48001A69636A1A70636A01336362638D013BB0
:102C58009BB26385202384F83D30204684F83E10DB
:102C6800FDF718FEC6E51A6812F40072DBD1196880
:102C780021F480611960596821F4E061596019698B
:102C8800636A1970636A01336362638D013B9BB2A7
:102C98006385202384F83D3094F83E3084F83E2044
:102CA800402B04D122632046FFF77DFCA2E50828CB
:102CB80001D0202801D1002300E0122323632046FD
:102CC800FDF7E6FD96E500293FF494AD92057FF502
:102CD80091ADE26A608D616A80B2042809D15A68B0
:102CE80022F480625A601B690B70636A0133636265
:102CF80023E7608D80B203280CD15868042A20F499
:102D080080605860EFD0022AEDD01A6822F4806201
:102D18001A60E8E7608D80B20228E4D1042A33D033
:102D280007D8012A07D0022A2ED0186840F400706C
:102D380004E0102AF9D1186820F4806018601B6933
:102D48000B70616A4B1C6362638D013B9BB26385A8
:102D580023681B694B70636A216801336362638D62
:102D6800013B9BB263854B6823F440734B6020237F
:102D780084F83D3094F83E30402B4FF0000384F83F
:102D88003E3005D123638EE7186840F48060D5E7AC
:102D9800082A90D0202A8DE7206C10B358690025A6
:102DA80087072DD596052BD5226C02B19D6994F81D
:102DB8003D2002F02802282A16D15A6822F480629F
:102DC8005A602F0685F004014FF0000354BFA28912
:102DD800228B84F83C30C1F380012046FFF788FB42
:102DE80008E59D695869DBE700220C9259690C9146
:102DF8009B690C930C9B84F83C20FBE40C0000209E
:102E0800C60640F1B180950540F1AE8094F83D507A
:102E18005A6822F4E0625A6000220D925A690D92B3
:102E28001A6842F001021A600D9A1A6822F4806248
:102E38001A605A681005EDB220D505F0F702222A6B
:102E48004AD1A06B0268526892B26285628D92B2D2
:102E58001AB1226C42F0040222645A6822F4006219
:102E68005A60FEF767FD012808D0A06B794B03650F
:102E7800FEF78FFC10B1A06B036D9847638D9BB272
:102E880013B323685A69510709D51A69636A1A7016
:102E9800636A01336362638D013B9BB26385236878
:102EA8005A69520609D51A69636A1A70636A013346
:102EB8006362638D013B9BB26385638D9BB21BB1DB
:102EC800236C43F004032364236C13B320460FB030
:102ED800BDE8F040FFF7CABB606B0268526892B267
:102EE8006285628D92B21AB1226C42F004022264A9
:102EF8005A6822F400625A60FEF71CFD0128BDD012
:102F0800606B544B0365FEF744FC0028B6D0606B39
:102F1800B2E72A2D06D12363282384F83D302046C2
:102F2800FFF7E5FA94F83D30282B0CD14A4BE362C1
:102F3800202200232363204684F83D2084F83E3075
:102F4800FFF7D7FA56E4236B222B02D0222D7FF409
:102F580051AC00232022236384F83D2084F83E30BE
:102F68002046FFF7C4FA45E401F0F701212900F0F3
:102F7800040535D1070627D5560525D53DBB94F858
:102F88003D00628D92B2C0B2002A3FF433AC626A4F
:102F980012F8015B1D616262628D013A92B262852C
:102FA800628D92B2002A7FF425AC29287FF422ACE6
:102FB8005A6822F480625A6028232163204684F8E4
:102FC8003D30FFF793FA15E4002D3FF413AC950557
:102FD8007FF510AC628D92B2002A3FF40BACA7E5E6
:102FE800400627D5510525D53DBB94F83D20618D78
:102FF80089B2D2B200293FF4FDAB1969636A19702E
:10300800636A01336362638D013B9BB26385638DA1
:103018009BB2002B7FF4EEAB2A2A7FF4EBAB22683D
:10302800536823F48063536022232363282384F89E
:103038003D3095E7002D3FF4DDAB92057FF5DAAB27
:10304800628D92B2002A3FF4D5AB1A69636A1A708E
:103058004BE600BFB52500080000FFFFF8B5036880
:103068005F695E6890F83E2017F480750446D2B216
:1030780006D016F480751EBF6FF480715961012562
:10308800B80506D5F10542BF6FF4007145F0020599
:103098005961780536D5F10534D5608D94F83D1021
:1030A800D4F830C0202A80B2C9B25FD100285DD1DF
:1030B80001F0F700212804D0282957D1BCF1210FAD
:1030C80054D194F83D20E16A0829D2B201D02029D0
:1030D8002AD1282A28D12E4AE2625A6822F4E062CC
:1030E8005A606FF480625A611A6822F480621A602A
:1030F800002320222363204684F83D2084F83E30B4
:10310800FFF7F7F93A053FD5F3053DD523686FF486
:10311800006245F008055A61236C2B43236420465E
:10312800BDE8F840FFF7A2BA212A1BD11849E1628D
:1031380022630021202284F83D2084F83E105A683A
:1031480022F4E0625A606FF480625A611A6822F4CD
:1031580080621A605A69100648BF19612046FFF755
:10316800C5F9CFE76FF480625A61CBE76FF48061ED
:10317800102A596145F0040501D0402AC2D11A68C5
:1031880042F400721A60BDE7002DC5D1F8BD00BF3A
:103198000000FFFF70470000F8B50446002800F063
:1031A8008C8090F8413003F0FF022BB9454B80F832
:1031B80040204363FFF7EEFF2268022184F84110A4
:1031C800D36923F47B6323F00F03D361636911622E
:1031D8008B42E26873D0A368002A14BF202510250B
:1031E8000120202B98BF6D0000F0C8FD236962699B
:1031F800B3F5007F59D1E3680A21002B53D0AD0005
:10320800B0FBF5F34B43B3FBF2F30A220533B3FBF0
:10321800F2F303F001025B08991EFD2949D8120256
:10322800134322692068DFF8ACC0E668A569134338
:103238000362D4E90121C36942EA010703EA0C03E6
:103248003B4333432B4343F40063C361236A012B9D
:1032580023D11D4B63631D4F1D4B984218BF4FF080
:103268004027B2F5007FFB6903EA0C03FB614FF0CE
:1032780002033B621CBFB2FA82F35B09F86914BF10
:103288001B024FF480733143194380B2294340EA4B
:1032980001039BB243F40063FB61002001236064D7
:1032A80084F841300AE0ED00AAE70A21B0FBF5F303
:1032B800A8E7636C43F0100363640120F8BD0022A3
:1032C800AEE700BFC7330008ED3400080034004003
:1032D8000038004040F0FFFF38B5044600293AD0D6
:1032E800002A38D090F84130012BD8B247D194F851
:1032F8004030012B43D0032384F84000256884F82C
:10330800413000236364E869616200F00700282304
:10331800C340D80744BF53009BB2A06B44BF23856A
:103328006385184B5CBF228562850364164BC363B3
:10333800164BC364238D05F10C029BB2FEF7F0F91E
:1033480058B1636C43F008036364012384F8413087
:10335800002384F84030012010E0236884F84000FE
:103368005A6891075EBF5A6842F002025A60DA69E9
:10337800520503D4DA6942F48062DA6138BD02206A
:10338800FCE700BF99330008A3330008C1340008E4
:1033980008B5806BFDF750FA08BD08B50346806B89
:1033A800DA6942B901684B6823F002034B600123D4
:1033B800428580F84130FDF749FA08BD70471FB5CE
:1033C80003689A68019290F84120042A044636D18D
:1033D800019AD10717D55A68520614D5C26AD96816
:1033E80022F8021BC262428E013A92B24286428E93
:1033F80092B242B95A6822F060025A60012380F8FA
:103408004130FFF7DBFF019B590618D523685A683E
:10341800920614D55A6822F060025A60002202927D
:10342800DA6802929B680293029B012384F8413078
:10343800636C43F0020363642046FDF711FA94F8C5
:103448004130032B36D1019B9B0719D5226853685D
:10345800180615D5636A33F8021BD1606362638D61
:10346800013B9BB26385638D9BB24BB9536823F0D4
:10347800A0035360012384F841302046FDF7E6F9A4
:10348800019B190716D523685A68920612D55A68FF
:1034980022F0A0025A60002203929B680393039BC8
:1034A800012384F84130636C43F0040363642046CD
:1034B800FDF7D6F904B010BD806B026808B55368F3
:1034C80023F003035360002343854386012380F8D8
:1034D8004130436C43F008034364FDF7C1F908BD6C
:1034E8007047000010B502688E49936886B004469C
:1034F80000938D4B8A4218BF4FF040239968019181
:103508005168029159680391416831F4007140F0A3
:103518009380009B99071AD5029B1B0617D5436A0F
:10352800991C1B884162D360438D013B9BB2438544
:10353800438D9BB25BB9536823F0A0035360438E5D
:103548009BB223B9012380F84130FFF7C9FF019BE3
:10355800D80722D5039B59061FD52168714A724B9B
:10356800914218BF4FF04023E26AD968901CE0628C
:103578001180628E013A92B26286628E92B262B90C
:103588005A6822F060025A60638D9BB22BB90123FE
:1035980084F841302046FFF7A3FF019B5A0622D545
:1035A800039B9B061FD523685E495F4A8B4218BF61
:1035B8004FF040222046516821F0600151605A685E
:1035C80022F0A0025A6000220492DA6804929B68F2
:1035D8000493049B012384F84130636C43F0020395
:1035E8006364FDF73DF9009B180740F19880029B42
:1035F800990640F1948023684A495A6822F0A0024B
:103608005A60494A8B4218BF4FF04022516821F056
:1036180060015160002205929B680593059B012378
:1036280084F84130636C204643F00403636406B0B9
:10363800BDE81040FDF714B9019A92071AD5039A0C
:10364800110617D5426A911C12884162DA60428DD0
:10365800013A92B24285428D92B25AB95A6822F022
:10366800A0025A60438E9BB223B9012380F84130EF
:10367800FFF736FF009BDA071CD5029B5B0619D5BE
:10368800E36A2268981CD168E0621980638E013B66
:103698009BB26386638E9BB263B9536823F0600361
:1036A8005360638D9BB22BB9012384F841302046C7
:1036B800FFF716FF009B58061BD5029B990618D5E5
:1036C80022681849536823F060035360164B8A42F6
:1036D80018BF4FF0402320465A6822F0A0025A60D3
:1036E800012384F84130636C43F002036364FDF7FF
:1036F800B7F8019B1A0712D5039B9B060FD52268C2
:103708000849094B8A4218BF4FF04023596821F0F5
:10371800A0015960536823F0600353607FE706B047
:1037280010BD00BF00380040003400402DE9F341CF
:10373800044640B30368DE0710D423689D075BD4B2
:103748002368190700F19D8023685A0700F1BD809E
:10375800A369002B40F0248100202CE08D4B9A684F
:1037680002F00C02042A07D09A6802F00C02082A18
:103778000BD15B68590208D5864B1B689A03DCD5C8
:103788006368002BD9D1012015E06368814DB3F53A
:10379800803F13D12B6843F480332B60FDF78CFEF8
:1037A8007C4E054633689B03C7D4FDF785FE401B56
:1037B8006428F7D9032002B0BDE8F081B3F5A02F43
:1037C80004D12B6843F480232B60E3E72A6822F4B2
:1037D80080322A602A6822F480222A60002BDDD1F8
:1037E800FDF76AFE06462B689F03A6D5FDF764FE23
:1037F800801B6428F7D9DDE7664B9A6812F00C0F36
:1038080007D09A6802F00C02082A11D15B685D02A1
:103818000ED4604A1368990702D5E368012BB2D128
:103828001368216923F0F80343EAC103136087E7AB
:10383800E268594BB2B101221A60FDF73DFE554DC1
:1038480006462B689B0707D52B68226923F0F803E7
:1038580043EAC2032B6073E7FDF72EFE801B0228A4
:10386800EFD9A7E71A60FDF727FE4A4E05463368E9
:103878009F077FF565AFFDF71FFE401B0228F6D9AD
:1038880098E76269444B82B10122C3F8802EFDF7A4
:1038980013FE404E0546736F9B073FF555AFFDF786
:1038A8000BFE401B0228F6D984E7C3F8802EFDF7EB
:1038B80003FE384E0546736F9F077FF545AFFDF74A
:1038C800FBFD401B0228F6D974E7324B1A6C12F044
:1038D800805228D101921A6C42F080521A641B6CF3
:1038E80003F080530193019B01272C4D2B68D805C9
:1038F8001BD5A368274D012B27D12B6F43F001035C
:103908002B67FDF7D9FD234E054641F28838336F02
:103918009A0739D5002F3FF41BAF1E4A136C23F0CA
:103928008053136414E70027DFE72B6843F48073A0
:103938002B60FDF7C1FD06462B68D905D9D4FDF7E4
:10394800BBFD801B0228F7D934E7052B04D12B6F68
:1039580043F004032B67D0E72A6F22F001022A679D
:103968002A6F22F004022A67002BCAD1FDF7A4FDB2
:1039780041F2883806462B6F9B07CBD5FDF79CFD97
:10398800801B4045F7D915E7FDF796FD401B4045DC
:10399800BDD90FE7003802400000474200700040E0
:1039A800374DAA6802F00C02082A3ED0022B354B8C
:1039B8004FF000021A662BD1FDF77EFD06462B68F4
:1039C80099011FD4D4E907321343626A43EA821388
:1039D800E26A43EA0263A26A5208013A43EA0243EE
:1039E8006B60284B264D01221A66FDF765FD0446DB
:1039F8002B689A013FF5B0AEFDF75EFD001B02286B
:103A0800F6D9D7E6FDF758FD801B0228D7D9D1E6AD
:103A1800FDF752FD04462B689B017FF59DAEFDF72F
:103A28004BFD001B0228F6D9C4E6012B3FF4ABAED0
:103A38006B68E26903F4800191427FF4A4AE216AC5
:103A480003F03F028A427FF49EAE616A47F6C07275
:103A58001A40B2EB811F7FF496AEA26A520803F4B3
:103A68004031013AB1EB024F7FF48DAEE26A03F0C8
:103A78007063B3EB026F14BF012000209BE600BF08
:103A88000038024000004742134908B58B6803F02C
:103A98000C03042B1CD0082B1CD14A684B684968BE
:103AA80013F4800314BF0D480D48C1F3881118BFE3
:103AB800002302F03F02A1FB000100F08BF9064B46
:103AC8005B68C3F3014301335B00B0FBF3F008BD4F
:103AD8000248FCE70248FAE70038024000127A0080
:103AE8000024F4002DE9F0410D46044610B90120E8
:103AF800BDE8F081434B1A6802F007028A4228D3D6
:103B080021688F072DD4C80740D43E4B1A6802F0AD
:103B18000702AA4265D8226851076BD4130707D554
:103B2800394A2169936823F4604343EAC1039360E7
:103B3800FFF7AAFF344B354A9B68C3F30313D35CE2
:103B4800D840334B1860334B1868FDF76BFC0020E6
:103B5800CEE7CAB21A701B6803F007038B42C6D1BE
:103B6800CEE7294B11F0040F1EBF9A6842F4E052C9
:103B78009A600E0742BF9A6842F460429A609A6857
:103B8800A06822F0F00202439A60BCE762681E4B0C
:103B9800012A1CD11B6813F4003FA8D01A4EB36841
:103BA80023F003031343B360FDF786FC41F2883822
:103BB8000746B368626803F00C03B3EB820FA4D026
:103BC800FDF77AFCC01B4045F3D9032090E7911E0E
:103BD80001291B6802D813F0007FDEE713F0020FFB
:103BE800DBE7EAB21A701B6803F00703AB427FF405
:103BF8007EAF90E70449E0688B6823F4E053034301
:103C08008B608BE7003C024000380240B841000856
:103C18000C00002014000020044B054A9B68C3F3E5
:103C28008223D35C034A1068D840704700380240AA
:103C3800B04100080C000020036813F0050FF7B529
:103C4800044639D123689A0731D500230193474B9D
:103C5800474D1A6C42F080521A641B6C03F0805373
:103C68000193019B2B6843F480732B60FDF724FCC0
:103C780006462B68D8054AD53C4D22692B6F13F4AC
:103C880040734AD1236903F44072B2F5407F374A42
:103C980063D1916823F0704021F4F81120F440704A
:103CA80001439160116FC3F30B030B431367236840
:103CB8001B0756D4002028E02E4B2C4E00229A6673
:103CC800FDF7FAFB054633681B0118D4D4E9022333
:103CD8001B0743EA821362681343C6F88430254BF6
:103CE800224E01229A66FDF7E7FB054633681F015D
:103CF800A8D4FDF7E1FB401B0228F7D904E0FDF743
:103D0800DBFB401B0228DED9032003B0F0BDFDF722
:103D1800D3FB801B0228ACD9F6E702F44072934229
:103D2800B0D02B6F134A0121C2F8401E23F4407310
:103D38000021C2F8401E2B672B6FD907A2D5FDF7CB
:103D4800BBFB41F2883706462B6F9A079AD4FDF7DA
:103D5800B3FB801BB842F7D9D6E7916821F4F81174
:103D68009FE7054B227DC3F8E021A3E70038024016
:103D780000700040000047420010474201281CD153
:103D8800104B9A6812021AD45A6812F4800FD3F8AA
:103D9800842014BF0C4B0D4B02F03F02B3FBF2F32F
:103DA800084AD2F88400D2F88420C0F38810584317
:103DB800C2F30273B0FBF3F0704700207047044869
:103DC800704700BF0038024000127A000024F40057
:103DD8000080BB0053B94AB9002908BF00281CBF9E
:103DE8004FF0FF314FF0FF3000F088B9ADF1080C0B
:103DF8006DE904CE00F006F8DDF804E0DDE9022301
:103E080004B070472DE9F047089D8E460446884661
:103E1800002B4AD18A42174662D9B2FA82F64EB1CD
:103E2800C6F1200301FA06F820FA03F3B74043EA83
:103E38000808B4404FEA174E1FFA87FCB8FBFEF19A
:103E4800230C0EFB118843EA084301FB0CF29A424B
:103E580009D9FB1801F1FF3080F0EA809A4240F25C
:103E6800E78002393B449A1AA3B2B2FBFEF00EFB7C
:103E7800102243EA024300FB0CFC9C4509D9FB18BD
:103E880000F1FF3280F0D6809C4540F2D3803B445D
:103E9800023840EA0140A3EB0C0300211DB1F340B6
:103EA8000022C5E90032BDE8F0878B4205D90DB183
:103EB800C5E9000100210846F5E7B3FA83F10029B6
:103EC80046D1734502D3824200F20581841A6EEB13
:103ED800030201209046002DE5D0C5E90048E2E73D
:103EE800002A00F09080B2FA82F6002E40F0A480FA
:103EF8008A1A030C4FEA174E80B2BCB20121B2FBFA
:103F0800FEFC0EFB1C2243EA024304FB0CF29A421D
:103F180007D9FB180CF1FF3802D29A4200F2E08070
:103F2800C4469B1AB3FBFEF20EFB123340EA03436E
:103F380002FB04F49C4207D9FB1802F1FF3002D2BD
:103F48009C4200F2CA8002461B1B42EA0C40A5E7CD
:103F5800C1F120068B4022FA06F71F430EFA01F43E
:103F680020FA06F32EFA06FE4FEA1749234300FA11
:103F780001F81FFA87FCBEFBF9F01C0C09FB10EED8
:103F880044EA0E4400FB0CFEA64502FA01F209D9E8
:103F98003C1900F1FF3A80F09C80A64540F29980D8
:103FA80002383C44A4EB0E041FFA83FEB4FBF9F379
:103FB80009FB13444EEA044403FB0CFCA44508D94E
:103FC8003C1903F1FF3E80F08280A4457FD9023B73
:103FD8003C4443EA0040A4EB0C04A0FB02EC64451B
:103FE8007346E14662D35FD05DB1B8EB030264EB80
:103FF800090404FA06F622FA01F31E43CC40C5E987
:10400800006400214FE7B1FBF2FC010C41EA0E41CC
:1040180080B240EA01423B4638463C46B846BE4676
:104028002026B1FBF7F1A2EB080241EA0C4166E752
:10403800014618E710462CE7C6F120022EFA02F3D3
:10404800B740B14020FA02F24FEA174E0A43B3FBD9
:10405800FEF8BCB20EFB1833110C41EA034108FB11
:1040680004F9B04089454FEA104380B23ED9791827
:1040780008F1FF3C01D289451FD8A1EB0901B1FB2A
:10408800FEF909FB04F80EFB191192B242EA01424B
:10409800424529D2BA1809F1FF31C4D24245C2D2E9
:1040A800A9F102013A44BEE7F0459DD2BEEB0203F6
:1040B8006CEB070C0138E14696E7A7EB0909494480
:1040C800A8F1020CB1FBFEF909FB04F8DBE7734623
:1040D8007FE7504666E70846FDE63B44023A33E789
:1040E800ACF1020C3B441CE749469CE7A1EB0901F3
:1040F800C446B1FBFEF909FB04F8C4E7704700BFEA
:10410800884210B501EB020402D98442234607D83D
:10411800431EA14208D011F8012B03F8012FF8E73C
:10412800024401468A4200D110BD13F8014D02F83D
:10413800014DF7E702440346934200D1704703F864
:10414800011BF9E770B50D4D0D4C641BA41000263A
:10415800A64209D10B4D0C4CFDF761F9641BA41064
:104168000026A64205D170BD55F8043B9847013694
:10417800EEE755F8043B98470136F2E7D8410008C6
:10418800D8410008D8410008D84100080A449142A3
:1041980000F1FF3300D1704710B511F8014B03F857
:1041A800014F9142F9D110BD000000000102030443
:1041B80000000000000000000102030406070809CF
:0841C800000610160006101697
:0841D0003CFCFF7F0100000030
:1041D80001000000B80B0000010000000024F400FA
:0841E8000100000010000000BE
:04000005080013D507
:00000001FF
